S00B0000484D492E737265633B
S1130000F02900200D0C0000A90C0000A90C000030
S113001000000000000000000000000000000000DC
S1130020000000000000000000000000A90C000017
S11300300000000000000000890600004D050000DB
S1130040A90C0000A90C0000A90C0000A90C0000D8
S1130050A90C0000A90C0000A90C0000A90C0000C8
S1130060A90C0000A90C0000A90C0000A90C0000B8
S1130070A90C0000A90C0000A90C0000DD09000077
S1130080A90C0000A90C0000A90C0000A90C000098
S1130090A90C0000A90C0000A90C0000A90C000088
S11300A0A90C0000A90C0000A90C0000A90C000078
S11300B0A90C0000A90C0000A90C000010B5064C06
S11300C02378002B07D1054B002B02D0044800E015
S11300D000BF0123237010BD2C0400200000000089
S11300E06C100000084B10B5002B03D007490848DA
S11300F000E000BF07480368002B00D110BD064B89
S1130100002BFBD09847F9E70000000030040020E2
S11301106C1000006C1000000000000080B500AFFF
S1130120024B984701231800BD4680BD31090000E9
S113013090B585B000AF3B1D180008231A000021BC
S1130140134B98470F23FC18124B98470300237056
S113015015E00C23FC183B1D18000F4B98470300B7
S113016023800C23FB181A880C23FB1801321A80F5
S11301700F23FB181A780F23FB18013A1A700F2368
S1130180FB181B78002BE4D1C046BD4605B090BDDA
S1130190590E0000590900007509000080B582B0AD
S11301A000AF0200FB1D1A70FB1D1B787F2B09D8C2
S11301B0064BFA1D127811001F220A4001219140BA
S11301C00A001A60C046BD4602B080BD00E100E0EE
S11301D0B0B582B000AF02003960FB1D1A70FB1D80
S11301E01B787F2B28D82F4CFB1D1B785BB29B08F8
S11301F02C49FA1D127852B29208C0329200525819
S1130200F91D0978080003210140C900FF20884036
S11302100100C94311403A689201FF201040FA1DC1
S11302201278150003222A40D200904002000A43AB
S1130230C0339B001A5131E01B4CFB1D1B781A0084
S11302400F231340083B9908174AFB1D1B7818001D
S11302500F230340083B9B0806339B00D318043349
S11302601B68FA1D1278100003220240D200FF20FE
S113027090400200D2431A403B689B01FF20184083
S1130280FB1D1B781D0003232B40DB00984003005B
S11302901A438B1D9B00E31804331A60C046BD4605
S11302A002B0B0BD00E100E000ED00E090B585B023
S11302B000AF78607B68FB60FB681B7BDBB2002BC4
S11302C00CD1FB689B689847031E03D0FB6802228D
S11302D01A73F1E7FB68FF221A73EDE7FB681B7BD7
S11302E0DBB2042BE8D0FB685C68044B984703003E
S11302F01800A047FB6804221A73DDE72D050000EF
S113030080B500AF0D4B00221A600C4B0C4A5A60AA
S11303100A4B00229A60094B07221A6001235B42B0
S113032000211800074B9847074A084B0021180082
S1130330074B9847C046BD4680BDC04610E000E06C
S1130340C7120000D1010000240400004C04002066
S1130350590E000080B586B000AFF860B9607A60CD
S11303601A00FB1C1A7080237B617A6813005B01FE
S11303709B181B01244A9B183B613B69FA685A602D
S11303803B69BA689A603B6910331A007B691F495C
S11303908C4663449B00D3181A003B691A603B697E
S11303A0FA1C12785A73FB1C1B78002B03D13B698F
S11303B001221A7302E03B6900221A737B695A1EF8
S11303C03B690432920080214904D1507B699A1E12
S11303D00F4B01218B4319003B6904329200D15029
S11303E07B69DA1E3B69043292000021D1507B699B
S11303F0083B1A0039693B6904329200D150C04667
S1130400BD4606B080BDC0464C040020F0FFFF3F4F
S1130410AD02000080B582B000AF02235B42FF2131
S113042018001A4B984701235B421800184B984751
S1130430184A8423DB000121D150164A8423DB00AF
S1130440D25813005B019B181B01124A9A18124BD5
S11304501A60114B1B681B6840333B603B6883F395
S1130460098803237B607B6883F31488BFF36F8F51
S1130470094B1B6803221A73074B1B681800074BB0
S11304809847C046BD4602B080BDC046D1010000B9
S11304909D0100004C040020C4080020AD020000AF
S11304A080B582B000AF786039607A6813005B0170
S11304B09B181B01194A9A18194B1A60184B1B6890
S11304C01B7BDBB2042B03D0154B1B6801221A7370
S11304D0124A8423DB003968D150104A8423DB009C
S11304E0D25813005B019B181B010C4A9A180D4B40
S11304F01A600C4B1B681B7BDBB2002B03D0094B2F
S11305001B6803221A73084B074A52688021490565
S11305100A435A60C046BD4602B080BD4C04002068
S1130520C4080020C808002000ED00E080B500AF3A
S1130530044B1A68044B0A21100098470300180062
S1130540BD4680BD48040020F90C000080B584B08D
S113055000AF484B1B685A1C464B1A60464BA522F9
S11305601A730023FB6040E04449FA6813005B01FE
S11305709B181B01CB180D331B78002B32D03F493D
S1130580FA6813005B019B181B01CB180C331B7812
S1130590DBB2042B26D1374B18683849FA681300AC
S11305A05B019B181B01CB180D331B781A00130039
S11305B09B009B185B001A00314B110098470B1EDF
S11305C010D12E4A8423DB00D258FB689A4209D00A
S11305D02A49FA6813005B019B181B01CB180C33E2
S11305E002221A70FB680133FB60FB68012BBBDD40
S11305F0224A8423DB00D25813005B019B181B01A1
S11306001E4A9B187B607B685B7B002B04D07B6855
S11306101B7BDBB2042B29D10023BB6023E0174AE8
S11306208423DB00D258BB689A4219D01349BA68B4
S113063013005B019B181B01CB180C331B78DBB236
S11306400033022B0BD80D4A8423DB00D358BA683D
S1130650110018000B4B98470223BB6000E0C04612
S1130660BB680133BB60BB68012BD8DDC046BD4607
S113067004B080BD48040020002000404C04002049
S1130680050E0000A104000072B6EFF309801038D3
S1130690F0C044464D4656465F462038F0C01038F8
S11306A0084A11680860084A11680868F0C8A0463A
S11306B0A946B246BB46F0C880F30988034862B62F
S11306C000470000C4080020C8080020FDFFFFFF09
S11306D080B582B000AF0200FB1D1A70FB1D1B78B1
S11306E07F2B09D8064BFA1D127811001F220A40ED
S11306F0012191400A001A60C046BD4602B080BD87
S113070000E100E0B0B582B000AF02003960FB1D2B
S11307101A70FB1D1B787F2B28D82F4CFB1D1B78D0
S11307205BB29B082C49FA1D127852B29208C0326F
S113073092005258F91D0978080003210140C900AC
S1130740FF2088400100C94311403A689201FF200C
S11307501040FA1D1278150003222A40D20090405E
S113076002000A43C0339B001A5131E01B4CFB1DAD
S11307701B781A000F231340083B9908174AFB1DE6
S11307801B7818000F230340083B9B0806339B008B
S1130790D31804331B68FA1D127810000322024098
S11307A0D200FF2090400200D2431A403B689B01D4
S11307B0FF201840FB1D1B781D0003232B40DB008A
S11307C0984003001A438B1D9B00E31804331A60FE
S11307D0C046BD4602B0B0BD00E100E000ED00E05F
S11307E080B500AF454B454A1269802149000A4350
S11307F01A614349424AE823D35840229343E822EA
S11308008B50C0463E4AE823D35840221340F9D1C6
S11308103B4AE8230021D1503949394AE823D358C7
S113082040221343E8228B50364B03229A61354B06
S1130830354A9A61334B01221A62324B04225A65BB
S1130840304B0322DA652F4A80232B21D1502D4AC5
S113085090232E49D1502B492D4B1B041B0C802275
S11308605202134384228B50264A88230021D150FC
S11308702449284B1B041B0C812292051343A022FC
S11308808B502049B02280231B068B501D4ABC2369
S11308900021D1501B49204B1B041B0C8022520207
S11308A01343C0228B5017491C4B1B041B0C802282
S11308B052021343F0228B50124AC8230021D15014
S11308C0104B00229A640F49E02201235B428B50B3
S11308D00C49E42201235B428B500A4B104ADA6133
S11308E00B4B104A1A6001210F200F4B98470F2021
S11308F00E4B9847C046BD4680BDC0460008004028
S1130900001C0040001C004243700000FFFFFF1F5A
S113091070080020CC08002074080020BC080020C7
S1130920030A050600005A8C05070000D1060000E2
S113093080B500AF074B074A926901218A439A6147
S1130940C046044B9B6901221340FAD1C046BD4600
S113095080BDC046001C004280B500AF044AA423F9
S1130960D358DBB27F221340DBB21800BD4680BDF2
S1130970001C004280B584B000AF7860154AA423FF
S1130980D3581B0A3F221340FB60FB689A00124BAA
S11309909200D3589B0C5B055B0DBB60FB689B000E
S11309A09A1C0D4B9200D2587B681A607B68043302
S11309B0FA689200D11C084A89008A581A600549CD
S11309C0A822FB688B50BB689BB21800BD4604B0DC
S11309D080BDC046001C0042CC08002080B500AF9A
S11309E0C046BD4680BD000080B500AF094B0A4A31
S11309F05A600A4B00225A75C046084B9B69002B6B
S1130A00FBD1074B074A1A62054B074A5A62C04694
S1130A10BD4680BD0040004184000200001000403B
S1130A20001C0040060101000601300080B500AF43
S1130A308223DB05802252059A608223DB05802213
S1130A4052055A618223DB05802212059A608223B3
S1130A50DB05802212055A618223DB0510229A608D
S1130A608223DB0510225A61214B1800214B984741
S1130A70214B18001F4B9847204B18001D4B9847DB
S1130A801F4B18001B4B98471E4B1800194B9847D7
S1130A901D4B1800174B98478223DB0580229204D4
S1130AA05A608223DB05802292049A618223DB054B
S1130AB0592206219954C8235B0318000D4B98470B
S1130AC08223DB05802252045A608223DB058022C4
S1130AD052049A618223DB05582206219954C023CB
S1130AE05B031800034B9847C046BD4680BDC04613
S1130AF0020010000D0B0000020011000600360079
S1130B00060037000100280001002900F0B585B077
S1130B1000AF78607B681B0C5A090F23FB181A700E
S1130B208223D9050F23FB181A787B681B0C0F202E
S1130B303818007840011B1A4020D2018A18D318B3
S1130B401A18137801210B4313708223D9050F233C
S1130B50FB181A787B681B0C0F20381800784001AA
S1130B601B1A5B088220C4050F2038180078302532
S1130B70C0012018C01840190078C0B240B27C6887
S1130B80240C01252C40A4000F25A5402C0064B2A0
S1130B90E44364B2204040B2C4B23020D2018A1887
S1130BA0D3181B18221C1A708223D9050F23FB1893
S1130BB01A787B681B0C0F203818007840011B1A28
S1130BC05B088220C4050F20381800783025C00146
S1130BD02018C01840190078C4B278680004050CC5
S1130BE07868000C01263040800085402800C0B29F
S1130BF02043C4B23020D2018A18D3181B18221CF7
S1130C001A70C046BD4605B0F0BD000080B582B084
S1130C1000AF194B7B60194B3B607A683B689A4282
S1130C200CD007E03B681A1D3A607A68111D7960A0
S1130C3012681A603A68124B9A42F3D3114B3B6024
S1130C4004E03B681A1D3A6000221A603A680E4BB1
S1130C509A42F6D30D4B7B600D4B7A68FF218A4391
S1130C609A600C4B98470C4B98470C4B98470C4B8D
S1130C7098470C4B9847FEE76C10000000000020DA
S1130C802C0400202C040020F009002000000000A7
S1130C9000ED00E0E90900002D0A0000E107000072
S1130CA0110E0000B90C000080B500AFFEE780B55E
S1130CB082B000AF7860FEE7B0B500AF084B98474C
S1130CC0084909480A230022084CA0470848002381
S1130CD001220021054CA047064B9847FEE7C04679
S1130CE0010300001D010000310100005503000054
S1130CF0AF0C000015040000002243088B4274D39B
S1130D0003098B425FD3030A8B4244D3030B8B4208
S1130D1028D3030C8B420DD3FF22090212BA030C11
S1130D208B4202D31212090265D0030B8B4219D3F2
S1130D3000E0090AC30B8B4201D3CB03C01A524112
S1130D40830B8B4201D38B03C01A5241430B8B425A
S1130D5001D34B03C01A5241030B8B4201D30B0343
S1130D60C01A5241C30A8B4201D3CB02C01A52416A
S1130D70830A8B4201D38B02C01A5241430A8B422D
S1130D8001D34B02C01A5241030A8B4201D30B0216
S1130D90C01A5241CDD2C3098B4201D3CB01C01A30
S1130DA0524183098B4201D38B01C01A524143093A
S1130DB08B4201D34B01C01A524103098B4201D328
S1130DC00B01C01A5241C3088B4201D3CB00C01A95
S1130DD0524183088B4201D38B00C01A524143080D
S1130DE08B4201D34B00C01A5241411A00D2014632
S1130DF0524110467047FFE701B5002000F006F8A5
S1130E0002BDC0460029F7D076E770477047C04658
S1130E1070B50D4E0D4D0024AD1BAD1005D0A300D3
S1130E20F35801349847A542F9D100F00DF9084E62
S1130E30084D0024AD1BAD1005D0A300F3580134B8
S1130E409847A542F9D170BD541000005410000019
S1130E50541000005C100000F0B5830743D0541E0A
S1130E60002A3FD0CEB20200032502E01A00013C62
S1130E7038D3531C16702B42F8D1032C2AD9FF22E5
S1130E800A40150215432A0415430F2C14D92700D0
S1130E901A00103F3E09013636019E19156055604F
S1130EA09560D56010329642F8D10F2297431037DF
S1130EB0DB191440032C0DD91A00271FBE08013674
S1130EC0B6009E1920C2B242FCD1032297430437D4
S1130ED0DB191440002C05D0C9B21C191970013358
S1130EE09C42FBD1F0BD14000300C6E7034B10B5D0
S1130EF0002B02D0024800F005F810BD00000000ED
S1130F00150F000010B5010000230022002000F09E
S1130F101FF810BD70B5094B094CE41AA41009D090
S1130F20084AA518AD00ED182B68013C9847043D0C
S1130F30002CF9D100F092F870BDC0466810000092
S1130F406C100000FFFFFF3F7047C0467047C0466B
S1130F50F0B54E464546DE465746E0B5364D83B0BD
S1130F600600286898460F009146FFF7EDFF334BC3
S1130F701C68A4235B00E058002852D043681F2B50
S1130F8013DC5A1C0192002E28D1019A02339B00D3
S1130F9042601F502868FFF7D9FF002003B03CBC13
S1130FA090469946A246AB46F0BD254B002B3DD05A
S1130FB0C820400000E000BF002837D0A42200234E
S1130FC05200A15843600160A05040328350043263
S1130FD08350013301930023002ED6D09A00924609
S1130FE082444A46882154466250C42252009146A3
S1130FF081444A468739994012688B460A4394468D
S11310004A4661461160842241465200A150022E94
S1131010BBD102005C468D32FF3211680C43146070
S1131020B3E720004D30FF30E050A7E72868FFF712
S11310308DFF01204042B1E7280400204410000045
S11310400000000000000020F8B5C046F8BC08BC51
S11310509E467047ED0E0000E5000000F8B5C0465E
S10F1060F8BC08BC9E467047BD000000B0
S113106C00000000EC02002054030020BC0300200C
S113107C0000000000000000000000000000000060
S113108C0000000000000000000000000000000050
S113109C0000000000000000000000000000000040
S11310AC0000000000000000000000000000000030
S11310BC0000000000000000000000000000000020
S11310CC0000000000000000000000000000000010
S11310DC0000000000000000000000000000000000
S11310EC00000000000000000000000000000000F0
S11310FC00000000000000000000000000000000E0
S113110C00000000000000000100000000000000CE
S113111C0E33CDAB34126DE6ECDE05000B00000093
S113112C00000000000000000000000000000000AF
S113113C000000000000000000000000000000009F
S113114C000000000000000000000000000000008F
S113115C000000000000000000000000000000007F
S10F148C0000000000000000CC0900205B
S9030000FC
